:1000000045C0A4C9CAC967C066C065C064C063C032
:1000100062C0EAC960C05FC05EC05DC05CC05BC05A
:100020005AC059C058C00000000000000000000481
:1000300005070000000000000000000000010204AD
:10004000081020408001020408102001020408105A
:100050002040804004040404040404040202020258
:10006000020203030303030302020300000000363D
:10007000003300300000000000380035003200007E
:1000800000000037003400310000850811241FBE35
:10009000CFE5D4E0DEBFCDBF10E0A0E6B0E0E2E205
:1000A000F7E102C005900D92A436B107D9F720E020
:1000B000A4E6B0E001C01D92A83DB207E1F710E050
:1000C000C6E4D0E003C02197FE010EDBC534D107A2
:1000D000D1F7FFDA24CB94CFFF920F931F93CF93E6
:1000E000DF93EC01F62E08811981C80103DBF816B5
:1000F00019F06F2DC80106DBCE01DF91CF911F9162
:100100000F91FF9008958FB90000779BFECF8FB1BC
:100110000895CF92DF92EF92FF92982F990F990F47
:10012000990F30E020E080E0C12CD12C7601C394FF
:10013000983390F4B701A601022E04C0440F551F56
:10014000661F771F0A94D2F7E92FF0E0E858FF4FB7
:10015000E081EE2361F0842B2F5F3F4F9F5F2830BB
:10016000310531F7FF90EF90DF90CF9008954095E3
:100170008423F2CFCF93DF93D82FC62F30916E0018
:1001800020916F008091CD00882381F09FB7F89473
:100190008091CD00813039F58BB78093CB004BB780
:1001A0008091CC00809584238BBF9FBF3DB92EB931
:1001B00060E08AE038DA8D2FA6DF8C2FA4DF61E0C3
:1001C0008AE031DA8091CD00882351F09FB7F8940E
:1001D0002091CD008091CB00213041F48BBF9FBF97
:1001E000DF91CF9108959093CB00E0CF8FBFF8CFF0
:1001F000CF93C0E08C2F8DDFCF5F682F8C2FBADFBD
:10020000C730C1F7CF910895CF93DF93C8E7D0E00F
:1002100081E08AA7EDDF64EF71E080E090E060D9D3
:100220001AA6DF91CF91E4CFCF93DF9300D0CDB763
:10023000DEB78093740021E030E03A832983682F91
:10024000CE01019649DF80917400E8E7F0E0982F35
:10025000917090AB81FB992790F991AB82FB882735
:1002600080F982AB0F900F90DF91CF910895E8E76E
:10027000F0E09F01285730402817390714F41192F5
:10028000F8CF0895FF920F931F93CF93DF93C82F5A
:1002900088E290E0ECDFACDF64E170E080E090E0C9
:1002A0001FD908E710E0FF24F394F801F082A0DFE3
:1002B00064E170E080E090E013D9F801F78698DF00
:1002C00064E170E080E090E00BD9F801178690DFE0
:1002D00064E170E080E090E003D9D0E0C858DF4FDF
:1002E000F88286DF64E170E080E090E0F9D8F80100
:1002F000108218827DDF64E170E080E090E0DF91A1
:10030000CF911F910F91FF90EBC8CF93DF9388E2BD
:1003100090E0ADDFC8E7D0E081E088A769DF64EF57
:1003200071E080E090E0DCD818A6DF91CF9160CF3B
:10033000EF92FF921F93CF93DF9300D0CDB7DEB73C
:100340007C01162FD7D98A3011F0843169F411E07D
:100350008A3009F010E0812F0F900F90DF91CF913C
:100360001F91FF90EF90089564E111116AE0FA8205
:10037000E982CE010196B0DEEECFCF93DF9300D0BD
:10038000CDB7DEB761110BC064E19A838983CE01DA
:100390000196A2DE0F900F90DF91CF9108956AE051
:1003A000F4CFCF93803E910529F481E080936C00D7
:1003B000CF910895813E910531F481E080936C00E6
:1003C00080936B00F5CF803F910541F420916D0043
:1003D000211104C081E080936D00EACF20916C0070
:1003E00021118FC020916B0021118BC030E020E0E3
:1003F0001092650010926400820F931F853491055E
:1004000009F47AC20CF0A7C18432910509F4ACC397
:100410000CF0F7C08231910509F438C30CF0AAC082
:100420008A30910509F412C50CF07CC08530910525
:1004300009F4DCC40CF068C08330910509F4EEC403
:10044000049709F4E3C480916500882331F080911A
:100450006400811102C01092780080916A008823A4
:10046000A9F080916900882389F080916800882331
:1004700069F010926A001092690010926800109260
:10048000660010926500109264003FDF80916A0060
:10049000882369F180916900882349F18091670080
:1004A000882329F110926A00109269001092670067
:1004B00010926600109265001092640088E290E04D
:1004C000D6DEC1E0C093A00093DEC093810090DE31
:1004D00064EF71E080E090E003D81092A00088DE25
:1004E00064EF71E080E090E0FBD710928100109201
:1004F0006D0080916B00882309F4BFC410926B00DB
:1005000057CF20E031E074CF8630910509F476C4EE
:10051000079709F098CF80916D00882309F49DCF4B
:1005200073DE91CF8D30910509F429C47CF48B30B2
:10053000910509F47BC40C9709F085CF80916D007B
:10054000882309F48ACF83E06FDE7DCF8E3091055A
:1005500009F4E1C3419709F076CF80916D0091E0F5
:100560008927809387008093780080936900809327
:10057000640069CF8C31910509F4E1C20CF5863134
:10058000910509F4A5C174F48431910509F487C279
:10059000459709F058CF80916D0091E089278093AD
:1005A0007A0051CF8A31910509F447C34B9709F07E
:1005B0004ACF80916D0091E089278093810043CFDD
:1005C0008132910509F4C9C274F48D31910509F4A1
:1005D0001FC34E9709F037CF80916D0091E08927B6
:1005E0008093830030CF8232910509F418C383973A
:1005F00009F029CF80916D0091E0892780938900CF
:1006000022CF8433910509F4B6C20CF047C08C3276
:10061000910509F4EFC20CF58932910509F488C2FD
:1006200074F48532910509F40FC3869709F00BCF56
:1006300080916D0091E0892780938B0004CF8A32EE
:10064000910509F4DEC28B9709F0FDCE80916D0013
:1006500091E0892780939100F6CE8133910509F4CA
:10066000B4C274F48D32910509F4BDC28E9709F0BD
:10067000EACE80916D0091E0892780939B00E3CEC4
:100680008233910509F462C2C39709F0DCCE8091F0
:100690006D0091E0892780939E00D5CE8D33910522
:1006A00009F4D9C20CF58A33910509F487C274F4B0
:1006B0008533910509F4BAC2C69709F0C4CE80917A
:1006C0006D0091E0892780939C00BDCE8B3391050E
:1006D00009F45FC2CC9709F0B6CE80916D0091E02D
:1006E000892780939500AFCE8234910509F458C2D2
:1006F0001CF58E33910509F4B5C28134910509F0DA
:10070000A2CE40916D0021E02427209387003091F4
:1007100066008FE190E0332311F08AE190E0885881
:100720009F4FFC012083442321F0109292001092ED
:1007300097003093650087CE8334910509F422C277
:100740008434910509F07FCE80916D0091E0892776
:100750008093850078CE8437910509F4B0CF0CF0F2
:10076000DBC08935910509F491C10CF08CC08D3442
:10077000910509F431C20CF04BC08A34910509F49B
:100780002AC11CF58634910509F400C1893491050C
:1007900009F059CE40916D0021E024272093870075
:1007A0003091660087E190E0332311F082E290E01F
:1007B00088589F4FFC012083442321F010929A0017
:1007C00010928F00309365003ECE8B34910509F472
:1007D000EEC18C34910509F036CE40916D0021E0D8
:1007E000242720938700309166008DE090E033232A
:1007F00011F088E090E088589F4FFC01208344234B
:1008000021F01092800010928500309365001BCE7D
:100810008435910509F42DC21CF58E34910509F437
:100820005FC28235910509F00ECE40916D0021E046
:10083000242720938700309166008CE190E03323D9
:1008400011F085E090E088589F4FFC0120834423FD
:1008500021F010927D001092940030936500F3CD4A
:100860008535910509F421C28835910509F0EBCD54
:1008700080916D0091E089278093870080937800B4
:1008800080936400E0CD8B36910509F4DDC13CF521
:100890008D35910509F4FCC19CF48A35910509F464
:1008A00040C18B35910509F0CECD80916D0081114D
:1008B000D4CD809166008111E9C18DE1E3DCC3CD27
:1008C0008636910509F420C18936910509F0BBCD22
:1008D00080916D0091E0892780937B00B4CD8137B2
:1008E000910509F457CF7CF48C36910509F4B3C116
:1008F0008037910509F0A7CD80916D0091E089279F
:1009000080937C00A0CD8237910509F465CE8337B2
:10091000910509F4AECE97CD823121E0920709F41A
:1009200057C20CF043C08B37910509F416C20CF581
:100930008837910509F492C29CF48537910509F432
:1009400091C18637910509F07ECD80916D0091E0CF
:1009500089278093780080937F008093640073CD13
:100960008937910509F402C28A37910509F460CEEE
:100970006ACD8E37910509F418C27CF48C37910545
:1009800009F4E2C18D37910509F05DCD80916D00CC
:1009900091E089278093840056CD8338910509F42E
:1009A0004DC28131914009F4D8CD4DCD813721E040
:1009B000920709F47DC0E4F58A35F1E09F0709F458
:1009C000B0C024F58431E1E09E0709F468C08A34A0
:1009D000914009F038CD40916D0021E0242720930B
:1009E00087003091660080E290E0332311F088E1C7
:1009F00090E088589F4FFC012083442321F01092FF
:100A0000900010929800309365001DCD8B3621E048
:100A1000920709F46EC08037914009F014CD80919F
:100A20006D0091E0892780938700809379000BCD3A
:100A30008537F1E09F0709F446C0A4F48237E1E06E
:100A40009E0709F44BC08437914009F0FCCC80919B
:100A50006D0091E089278093780080938C008093CB
:100A60006400F1CC8A3721E0920709F493C18D37F5
:100A7000914009F0E8CC80916D0091E08927809346
:100A8000780080938B0080936400DDCC80916D00B2
:100A900091E089278093780080936600D4CC809180
:100AA0006D0091E089278093870080936A00CBCC0A
:100AB00080916D0091E0892780938700809390005A
:100AC00080936800C0CC80916D0091E0892780936D
:100AD00078008093940080936400B5CC80916D0081
:100AE00091E089278093780080939C008093640034
:100AF000AACC80916D0091E0892780937800809343
:100B00009B00809364009FCC80916D0091E08927C9
:100B10008093780080937C008093640080936700CA
:100B200092CC80916D0091E0892780937E008BCCE0
:100B300080916D0091E0892780937F0084CC809123
:100B40006D0091E08927809379007DCC80916D00C4
:100B500091E0892780939F0076CC80916D0091E091
:100B60008927809390006FCC80916D0091E0892758
:100B700080938A0068CC80916D0091E089278093F2
:100B8000990061CC80916D0091E0892780938D0060
:100B90005ACC80916D0091E089278093960053CCC8
:100BA00080916D0091E0892780938E004CCC8091DC
:100BB0006D0091E089278093860045CC80916D007F
:100BC00091E0892780938F003ECC80916D0091E069
:100BD00089278093970037CC80916D0091E0892719
:100BE00080937D0030CC80916D0091E089278093C7
:100BF000920029CC80916D0091E0892780939A0022
:100C000022CC80916D0091E08927809398001BCCC5
:100C100080916D0091E089278093820014CC8091AF
:100C20006D0091E08927809388000DCC80916D0044
:100C300091E0892780939D0006CC80916D0091E022
:100C4000892780938000FFCB80916D0091E08927F8
:100C500080939300F8CB80916D0091E08927809379
:100C60009400F1CB80916D0091E0892780938C00F6
:100C7000EACB80916D008111F0CB809166008111EB
:100C800003C085E2FFDADFCB89E1FCCF81E216CE3B
:100C900080916D008111E1CB80916600811103C0CC
:100CA00081E1F0DAD0CB89E0FCCF40916D0021E00A
:100CB000242720938700309166008EE090E0332354
:100CC00011F086E190E088589F4FFC012083442377
:100CD00021F010928E001092860030936500B3CB05
:100CE00040916D0021E02427209387003091660019
:100CF0008EE190E0332311F084E090E088589F4F1C
:100D0000FC012083442321F010927C001092960075
:100D10003093650098CB80916600882331F08091F4
:100D20006D00811102C081E0ADDA80916600811111
:100D30008ACB80916D0091E0892780938700809312
:100D40008800109265007FCB80916D0091E089272B
:100D50008093870080939F0076CB80916D0091E017
:100D6000892780938700809396006DCB80916D00DA
:100D700091E089278093870080938E0064CB8091D7
:100D80006D0091E089278093780080938D00809397
:100D9000640059CB80916D0091E0892780937800A1
:100DA00080939300809364004ECB80916D008823E4
:100DB00009F453CB6091760081E068276093760058
:100DC00090E080E0DADA809176008093A1003BCB5E
:100DD00080916D00882309F440CB8091750091E0EB
:100DE0008927809375008093AD002DCB80916D0095
:100DF000882309F432CB80E017DA25CB80916D008F
:100E0000882309F42ACB81E00FDA1DCB80916D0095
:100E1000882309F422CB82E007DA15CB80916D009C
:100E2000882309F41ACB84E0FFD90DCB80916D00A3
:100E3000882309F412CB85E0F7D905CB80916D00AA
:100E4000882309F40ACB86E0EFD9FDCA80916D00B2
:100E5000882309F402CB87E0E7D9F5CA80916D00B9
:100E6000882309F4FACA10926A001092690010925D
:100E700068001092660049DAE6CA10926C0098CABF
:100E8000CF93DF9300D0CDB7DEB76091760090E0CE
:100E900080E04EDA8093760081E090E02BD48830B9
:100EA000D8F480937400809176008093A1008091A3
:100EB0007400982F91709093A80081FB992790F966
:100EC0009093A90082FB882780F98093AA000F9055
:100ED0000F90DF91CF9108951092740081E090E01F
:100EE0009A83898360E0CE010196F6D8DCCFE0D109
:100EF00061E08AE05CD361E08AE095D361E08EE056
:100F000056D361E08FE053D361E080E150D361E0DC
:100F100081E14DD362E085E04AD362E086E047D3C9
:100F200062E087E044D362E088E041D362E089E098
:100F30003ED362E083E03BD362E084E038D361E0FB
:100F400082E135D361E083E132D361E080E02FD3E9
:100F500061E08EE068D361E08FE065D360E080E11E
:100F600062D360E081E15FD360E082E15CD360E066
:100F700083E159D360E080E056D362E082E017D38A
:100F800062E081E014D388E390E071D979DF609169
:100F9000760080E148D360917400617082E143D3B0
:100FA000609174006695617083E13DD36091740037
:100FB00062FB662760F980E036D3A7D962E081E062
:100FC00059D160E08FE02FC3CF92DF92EF92FF9272
:100FD000CF93DF9353D26B017C0130D1882309F189
:100FE0003ED1EC01C0927000D0927100E09272008C
:100FF000F092730061E08FE016D3CE01D2D96091F8
:101000007400617082E10FD3609174006695617025
:1010100083E109D36091740062FB662760F980E088
:1010200002D385E02DD321E0892B09F420E0209321
:10103000A40086E025D321E0892B09F420E0209349
:10104000A50087E01DD321E0892B09F420E020933F
:10105000A60088E015D321E0892B09F420E0209335
:10106000A70089E00DD321E0892B09F420E020932B
:10107000A30083E005D321E0892B09F420E020932D
:10108000AB0084E0FDD221E0892B09F420E020931D
:10109000AC00AED88091700090917100A091720068
:1010A000B0917300A7019601281B390B4A0B5B0B0B
:1010B000DA01C901883C9105A105B105F8F08091DC
:1010C000740060917700811101C060E08FE0ABD2C5
:1010D0006091760080E1A7D26091750081E1A3D292
:1010E0008091770091E0892780937700C09270000B
:1010F000D0927100E0927200F0927300DF91CF9174
:10110000FF90EF90DF90CF90089580EB90E0B1D00A
:10111000EEE6F0E080E5808381E081830895CF9260
:10112000DF92EF92FF920F931F93CF938091B800BD
:10113000A7D2C82FA3D10091B1001091B200209185
:10114000B3003091B4006B017C01C01AD10AE20AED
:10115000F30A970186010B3F11052105310510F0B7
:101160001092B7006093B1007093B2008093B30007
:101170009093B4008091B7008F5F8093B7008A305E
:1011800038F4823068F58130F9F01092B70020C051
:101190008A30B9F18B30C9F78091B5008D3FA8F73F
:1011A0008091BA008F5F803108F080E09091B900A3
:1011B000981759F3E82FF0E09091B600E554FF4FEF
:1011C00090838093BA00E1CF1092B6001092B500E0
:1011D000CF911F910F91FF90EF90DF90CF900895E6
:1011E0008091B5008C0F8093B5008091B60090E09F
:1011F0009595879520E0C11120E8822B8093B60059
:10120000E7CF8091B50081708C1719F08093B500FD
:10121000DFCF8DEFFBCFE091B9008091BA008E1740
:1012200059F0EF5FE03108F0E0E0E093B900F0E062
:10123000E554FF4F8081089580E008959091B900B2
:101240008091BA00981749F08091B9009091BA0046
:10125000891B87FF03C0805F089580E00895EEDF5B
:10126000811103C08FEF90E00895D5DF8111FBCF8E
:10127000F9CF0895CF93DF93D82FC62F8093B8006E
:1012800062E08C2F94D162E08D2F91D11092BA0040
:101290001092B90080E0C23021F08FEFC33009F422
:1012A00081E042E050E06FE878E0DF91CF912FC01D
:1012B000CF93CFB7F8948091CE0081111FC0EEE597
:1012C000F0E08491E7E4F0E09491E82FF0E0EE0F95
:1012D000FF1FE158FF4FA591B491EC91E92319F458
:1012E00061E08AE0A0D161E08AE061D16C9A6E9AF7
:1012F00061E08DE05CD161E08BE059D18091CE005E
:101300008F5F8093CE00CFBFCF9108950895823034
:1013100088F4E82FF0E0EE0FFF1FE05AFF4F7183D3
:101320006083813041F085B78C7F482B45BF8BB7F8
:1013300080648BBF089585B7837F440F551F440F8A
:10134000551F482B45BF8BB78068F3CF1F920F9274
:101350000FB60F9211242F933F934F935F936F9388
:101360007F938F939F93AF93BF93EF93FF93E091FE
:101370006000F09161000995FF91EF91BF91AF91ED
:101380009F918F917F916F915F914F913F912F919D
:101390000F900FBE0F901F9018951F920F920FB6CF
:1013A0000F9211242F933F934F935F936F937F93EB
:1013B0008F939F93AF93BF93EF93FF93E09162005E
:1013C000F09163000995FF91EF91BF91AF919F91CB
:1013D0008F917F916F915F914F913F912F910F90DE
:1013E0000FBE0F901F9018951F920F920FB60F927D
:1013F00011242F933F938F939F93AF93BF9380912B
:10140000D0009091D100A091D200B091D300309142
:10141000CF0023E0230F2D3758F50196A11DB11DF4
:101420002093CF008093D0009093D100A093D2005E
:10143000B093D3008091D4009091D500A091D600B4
:10144000B091D7000196A11DB11D8093D400909357
:10145000D500A093D600B093D700BF91AF919F91D4
:101460008F913F912F910F900FBE0F901F90189565
:1014700026E8230F0296A11DB11DD2CF2FB7F894F5
:101480006091D0007091D1008091D2009091D300F2
:101490002FBF08953FB7F8948091D4009091D50064
:1014A000A091D600B091D70022B708B600FE05C0C3
:1014B0002F3F19F00196A11DB11D3FBFBA2FA92FD3
:1014C000982F8827BC01CD01620F711D811D911DD0
:1014D00042E0660F771F881F991F4A95D1F708953C
:1014E0008F929F92AF92BF92CF92DF92EF92FF9234
:1014F0006B017C01CFDF4B015C01C114D104E1041D
:10150000F104D9F0F0D0C6DF681979098A099B097E
:10151000683E73408105910580F321E0C21AD1082D
:10152000E108F10888EE880E83E0981EA11CB11C2A
:10153000C114D104E104F10431F7FF90EF90DF9082
:10154000CF90BF90AF909F908F900895789483B77D
:10155000826083BF83B7816083BF89B7816089BFA1
:101560001EBC8EB582608EBD8EB581608EBD8FB57E
:1015700081608FBD85B5846085BD85B5806485BD7E
:10158000329A319A309A379A1AB80895853041F0D4
:10159000873049F0843051F48FB58F778FBD08952F
:1015A0008FB58F7DFBCF85B58F7D85BD0895CF939A
:1015B000DF9390E0FC01E35CFF4F24918C5A9F4F36
:1015C000FC0184918823C9F090E0880F991FFC01E9
:1015D000E158FF4FA591B491FC01EB58FF4FC59125
:1015E000D49161110DC09FB7F8948C9120958223FE
:1015F0008C938881282328839FBFDF91CF91089502
:10160000623051F49FB7F8943C91822F80958323E8
:101610008C93E8812E2BEFCF8FB7F894EC912E2B83
:101620002C938FBFEACF1F93CF93DF93282F30E007
:10163000F901EA5DFF4F8491F901E35CFF4FD4911A
:10164000F901EC5AFF4FC491CC23A1F0162F811160
:101650009DDFEC2FF0E0EE0FFF1FEB58FF4FA59141
:10166000B4918FB7F894EC91111108C0D095DE2396
:10167000DC938FBFDF91CF911F910895DE2BF8CFC0
:10168000CF93DF93282F30E0F901EA5DFF4F84917B
:10169000F901E35CFF4FD491F901EC5AFF4FC4917B
:1016A000CC2399F0811172DFEC2FF0E0EE0FFF1FD9
:1016B000E559FF4FA591B491EC91ED2381E090E0C5
:1016C00009F480E0DF91CF91089580E090E0FACFB7
:1016D00008953CDFFDDF0BDCC0E0D0E075DC209737
:1016E000E9F38ED4FBCF0895EE0FFF1F0590F49120
:1016F000E02D0994E199FECF9FBB8EBBE09A99271C
:101700008DB30895262FE199FECF9FBB8EBB2DBBD5
:101710000FB6F894E29AE19A0FBE01960895F894F4
:02172000FFCFF9
:041722008609000034
:00000001FF
