:1000000045C068C98EC967C066C065C064C063C0AA
:1000100062C0AEC960C05FC05EC05DC05CC05BC096
:100020005AC059C058C00000000000000000000481
:1000300005070000000000000000000000010204AD
:10004000081020408001020408102001020408105A
:100050002040804004040404040404040202020258
:10006000020203030303030302020300000000363D
:10007000003300300000000000380035003200007E
:1000800000000037003400310000490811241FBE71
:10009000CFE5D4E0DEBFCDBF10E0A0E6B0E0EAEAF5
:1000A000F6E102C005900D92A436B107D9F720E021
:1000B000A4E6B0E001C01D92A83DB207E1F710E050
:1000C000C6E4D0E003C02197FE01D2DAC534D107DF
:1000D000D1F7C3DAE8CA94CFFF920F931F93CF935F
:1000E000DF93EC01F62E08811981C801C7DAF816F2
:1000F00019F06F2DC801CADACE01DF91CF911F919F
:100100000F91FF9008958FB90000779BFECF8FB1BC
:100110000895CF92DF92EF92FF92982F990F990F47
:10012000990F30E020E080E0C12CD12C7601C394FF
:10013000983390F4B701A601022E04C0440F551F56
:10014000661F771F0A94D2F7E92FF0E0E858FF4FB7
:10015000E081EE2361F0842B2F5F3F4F9F5F2830BB
:10016000310531F7FF90EF90DF90CF9008954095E3
:100170008423F2CFCF93DF93D82FC62F30916E0018
:1001800020916F008091CD00882381F09FB7F89473
:100190008091CD00813039F58BB78093CB004BB780
:1001A0008091CC00809584238BBF9FBF3DB92EB931
:1001B00060E08AE0FCD98D2FA6DF8C2FA4DF61E000
:1001C0008AE0F5D98091CD00882351F09FB7F8944B
:1001D0002091CD008091CB00213041F48BBF9FBF97
:1001E000DF91CF9108959093CB00E0CF8FBFF8CFF0
:1001F000CF93C0E08C2F8DDFCF5F682F8C2FBADFBD
:10020000C730C1F7CF910895CF93DF93C8E7D0E00F
:1002100081E08AA7EDDF64EF71E080E090E024D90F
:100220001AA6DF91CF91E4CFCF93DF9300D0CDB763
:10023000DEB78093740021E030E03A832983682F91
:10024000CE01019649DF80917400E8E7F0E0982F35
:10025000917090AB81FB992790F991AB82FB882735
:1002600080F982AB0F900F90DF91CF910895E8E76E
:10027000F0E09F01285730402817390714F41192F5
:10028000F8CF0895FF920F931F93CF93DF93C82F5A
:1002900088E290E0ECDFACDF64E170E080E090E0C9
:1002A000E3D808E710E0FF24F394F801F082A0DF20
:1002B00064E170E080E090E0D7D8F801F78698DF3D
:1002C00064E170E080E090E0CFD8F801178690DF1D
:1002D00064E170E080E090E0C7D8D0E0C858DF4F1C
:1002E000F88286DF64E170E080E090E0BDD8F8013C
:1002F000108218827DDF64E170E080E090E0DF91A1
:10030000CF911F910F91FF90AFC8CF93DF9388E2F9
:1003100090E0ADDFC8E7D0E081E088A769DF64EF57
:1003200071E080E090E0A0D818A6DF91CF9160CF77
:10033000EF92FF921F93CF93DF9300D0CDB7DEB73C
:100340007C01162F9BD98A3011F0843169F411E0B9
:100350008A3009F010E0812F0F900F90DF91CF913C
:100360001F91FF90EF90089564E111116AE0FA8205
:10037000E982CE010196B0DEEECFCF93DF9300D0BD
:10038000CDB7DEB761110BC064E19A838983CE01DA
:100390000196A2DE0F900F90DF91CF9108956AE051
:1003A000F4CFCF93803E910529F481E080936C00D7
:1003B000CF910895813E910531F481E080936C00E6
:1003C00080936B00F5CF803F910541F420916D0043
:1003D000211104C081E080936D00EACF20916C0070
:1003E00021118FC020916B0021118BC030E020E0E3
:1003F0001092650010926400820F931F853491055E
:1004000009F462C20CF0A1C18432910509F48EC3D3
:100410000CF0F7C08231910509F41AC30CF0AAC0A0
:100420008A30910509F4E8C40CF07CC08530910550
:1004300009F4B2C40CF068C08330910509F4C4C457
:10044000049709F4B9C480916500882331F0809144
:100450006400811102C01092780080916A008823A4
:10046000A9F080916900882389F080916800882331
:1004700069F010926A001092690010926800109260
:10048000660010926500109264003FDF80916A0060
:10049000882369F180916900882349F18091670080
:1004A000882329F110926A00109269001092670067
:1004B00010926600109265001092640088E290E04D
:1004C000D6DEC1E0C093A00093DEC093810090DE31
:1004D00064EF71E080E090E0C7D71092A00088DE62
:1004E00064EF71E080E090E0BFD71092810010923D
:1004F0006D0080916B00882309F495C410926B0005
:1005000057CF20E031E074CF8630910509F44CC418
:10051000079709F098CF80916D00882309F49DCF4B
:1005200073DE91CF8D30910509F4FFC37CF48B30DD
:10053000910509F451C40C9709F085CF80916D00A5
:10054000882309F48ACF83E06FDE7DCF8E3091055A
:1005500009F4B7C3419709F076CF80916D0091E01F
:100560008927809387008093780080936900809327
:10057000640069CF8C31910509F4C3C20CF5863152
:10058000910509F48DC174F48431910509F469C2AF
:10059000459709F058CF80916D0091E089278093AD
:1005A0007A0051CF8A31910509F429C34B9709F09C
:1005B0004ACF80916D0091E089278093810043CFDD
:1005C0008132910509F4ABC274F48D31910509F4BF
:1005D00001C34E9709F037CF80916D0091E08927D4
:1005E0008093830030CF8232910509F4FAC2839759
:1005F00009F029CF80916D0091E0892780938900CF
:1006000022CF8433910509F498C20CF047C08C3294
:10061000910509F4D1C20CF58932910509F46AC239
:1006200074F48532910509F4F1C2869709F00BCF75
:1006300080916D0091E0892780938B0004CF8A32EE
:10064000910509F4C0C28B9709F0FDCE80916D0031
:1006500091E0892780939100F6CE8133910509F4CA
:1006600096C274F48D32910509F49FC28E9709F0F9
:10067000EACE80916D0091E0892780939B00E3CEC4
:100680008233910509F444C2C39709F0DCCE80910E
:100690006D0091E0892780939E00D5CE8D33910522
:1006A00009F4BBC20CF58A33910509F469C274F4EC
:1006B0008533910509F49CC2C69709F0C4CE809198
:1006C0006D0091E0892780939C00BDCE8B3391050E
:1006D00009F441C2CC9709F0B6CE80916D0091E04B
:1006E000892780939500AFCE8234910509F43AC2F0
:1006F000ECF48E33910509F497C28134910509F029
:10070000A2CE20916D0081E02827209387003091B0
:1007100066008FE190E0332311F08AE190E0885881
:100720009F4FFC012083309365008DCE833491056B
:1007300009F40AC28434910509F085CE80916D00D8
:1007400091E08927809385007ECE8437910509F456
:10075000B6CF0CF0C9C08935910509F479C10CF008
:100760007AC08D34910509F419C20CF03FC08A3467
:10077000910509F418C1ECF48634910509F4EEC032
:100780008934910509F05FCE20916D0081E0282722
:10079000209387003091660087E190E0332311F0C9
:1007A00082E290E088589F4FFC01208330936500DF
:1007B0004ACE8B34910509F4DCC18C34910509F0E3
:1007C00042CE20916D0081E0282720938700309150
:1007D00066008DE090E0332311F088E090E08858C7
:1007E0009F4FFC012083309365002DCE8435910509
:1007F00009F421C2ECF48E34910509F44DC282351E
:10080000910509F020CE20916D0081E028272093EA
:100810008700309166008CE190E0332311F085E091
:1008200090E088589F4FFC012083309365000BCEE9
:100830008535910509F41BC28835910509F003CE71
:1008400080916D0091E089278093870080937800E4
:1008500080936400F8CD8B36910509F4D7C13CF53F
:100860008D35910509F4F6C19CF48A35910509F49A
:100870003AC18B35910509F0E6CD80916D0081116B
:10088000ECCD809166008111E3C18DE1FBDCDBCD15
:100890008636910509F41AC18936910509F0D3CD40
:1008A00080916D0091E0892780937B00CCCD8137CA
:1008B000910509F469CF7CF48C36910509F4ADC13A
:1008C0008037910509F0BFCD80916D0091E08927B7
:1008D00080937C00B8CD8237910509F47DCE8337B3
:1008E000910509F4C6CEAFCD823121E0920709F41B
:1008F00045C20CF043C08B37910509F404C20CF5D6
:100900008837910509F480C29CF48537910509F474
:100910008BC18637910509F096CD80916D0091E0ED
:1009200089278093780080937F00809364008BCD2B
:100930008937910509F4F0C18A37910509F478CE19
:1009400082CD8E37910509F406C27CF48C3791056F
:1009500009F4D0C18D37910509F075CD80916D00F6
:1009600091E08927809384006ECD8338910509F446
:100970003BC28131914009F4F0CD65CD813721E052
:10098000920709F477C0B4F58A35F1E09F0709F4BE
:10099000AAC0F4F48431E1E09E0709F462C08A340D
:1009A000914009F050CD20916D0081E028272093DF
:1009B00087003091660080E290E0332311F088E1F7
:1009C00090E088589F4FFC012083309365003BCD19
:1009D0008B3621E0920709F46EC08037914009F010
:1009E00032CD80916D0091E08927809387008093BC
:1009F000790029CD8537F1E09F0709F446C0A4F4BA
:100A00008237E1E09E0709F44BC08437914009F03A
:100A10001ACD80916D0091E08927809378008093B2
:100A20008C00809364000FCD8A3721E0920709F48F
:100A300087C18D37914009F006CD80916D0091E01E
:100A400089278093780080938B0080936400FBCC8F
:100A500080916D0091E089278093780080936600F3
:100A6000F2CC80916D0091E089278093870080937C
:100A70006A00E9CC80916D0091E08927809387001E
:100A80008093900080936800DECC80916D0091E0AF
:100A90008927809378008093940080936400D3CC5E
:100AA00080916D0091E089278093780080939C006D
:100AB00080936400C8CC80916D0091E08927809379
:100AC000780080939B0080936400BDCC80916D0082
:100AD00091E089278093780080937C008093640064
:100AE00080936700B0CC80916D0091E0892780935E
:100AF0007E00A9CC80916D0091E0892780937F00D2
:100B0000A2CC80916D0091E08927809379009BCCE5
:100B100080916D0091E0892780939F0094CC809113
:100B20006D0091E08927809390008DCC80916D00BD
:100B300091E0892780938A0086CC80916D0091E0B6
:100B40008927809399007FCC80916D0091E089275F
:100B500080938D0078CC80916D0091E089278093FF
:100B6000960071CC80916D0091E0892780938E0072
:100B70006ACC80916D0091E089278093860063CCD8
:100B800080916D0091E0892780938F005CCC8091EB
:100B90006D0091E089278093970055CC80916D007E
:100BA00091E0892780937D004ECC80916D0091E08B
:100BB00089278093920047CC80916D0091E089272E
:100BC00080939A0040CC80916D0091E089278093BA
:100BD000980039CC80916D0091E089278093820044
:100BE00032CC80916D0091E08927809388002BCCD6
:100BF00080916D0091E0892780939D0024CC8091A5
:100C00006D0091E08927809380001DCC80916D005C
:100C100091E089278093930016CC80916D0091E03C
:100C20008927809394000FCC80916D0091E08927F3
:100C300080938C0008CC80916D0081110ECC809146
:100C40006600811103C085E21DDBFDCB89E1FCCF8D
:100C500081E21CCE80916D008111FFCB80916600F6
:100C6000811103C081E10EDBEECB89E0FCCF209146
:100C70006D0081E0282720938700309166008EE088
:100C800090E0332311F086E190E088589F4FFC01FB
:100C9000208330936500D7CB20916D0081E0282719
:100CA00020938700309166008EE190E0332311F0AD
:100CB00084E090E088589F4FFC01208330936500CA
:100CC000C2CB80916600882331F080916D00811144
:100CD00002C081E0D7DA809166008111B4CB8091A7
:100CE0006D0091E08927809387008093880010929F
:100CF0006500A9CB80916D0091E0892780938700E2
:100D000080939F00A0CB80916D0091E08927809314
:100D100087008093960097CB80916D0091E08927A2
:100D20008093870080938E008ECB80916D0091E040
:100D300089278093780080938D008093640083CB13
:100D400080916D0091E089278093780080939300D3
:100D50008093640078CB80916D00882309F47DCB6B
:100D60006091760081E068276093760090E080E0F3
:100D700004DB809176008093A10065CB80916D00AB
:100D8000882309F46ACB8091750091E089278093CC
:100D900075008093AD0057CB80916D00882309F4D6
:100DA0005CCB80E041DA4FCB80916D00882309F461
:100DB00054CB81E039DA47CB80916D00882309F468
:100DC0004CCB82E031DA3FCB80916D00882309F46F
:100DD00044CB84E029DA37CB80916D00882309F475
:100DE0003CCB85E021DA2FCB80916D00882309F47C
:100DF00034CB86E019DA27CB80916D00882309F483
:100E00002CCB87E011DA1FCB80916D00882309F489
:100E100024CB10926A001092690010926800109220
:100E2000660073DA10CB10926C00C2CACF93DF93C6
:100E300000D0CDB7DEB76091760090E080E078DA40
:100E40008093760081E090E019D48830D8F48093C4
:100E50007400809176008093A10080917400982F97
:100E600091709093A80081FB992790F99093A90025
:100E700082FB882780F98093AA000F900F90DF9162
:100E8000CF9108951092740081E090E09A83898355
:100E900060E0CE01019620D9DCCFCED161E08AE0BE
:100EA0004AD361E08AE083D361E08EE044D361E01D
:100EB0008FE041D361E080E13ED361E081E13BD34B
:100EC00062E085E038D362E086E035D362E087E017
:100ED00032D362E088E02FD362E089E02CD362E075
:100EE00083E029D362E084E026D361E082E123D36A
:100EF00061E083E120D361E080E01DD361E08EE01A
:100F000056D361E08FE053D360E080E150D360E0DE
:100F100081E14DD360E082E14AD360E083E147D3D1
:100F200060E080E044D362E082E005D362E081E0EB
:100F300002D388E390E09BD979DF6091760080E16D
:100F400036D361E080917400811101C060E081E1DD
:100F50002ED3DBD962E081E051D160E08FE027C37E
:100F6000CF92DF92EF92FF92CF93DF934BD26B0140
:100F70007C0128D1882321F136D1EC0181E08093D6
:100F80007700C0927000D0927100E0927200F092EF
:100F9000730061E08FE00BD3CE0103DA609174003F
:100FA000617082E104D3609174006695617083E1A1
:100FB000FED26091740062FB662760F980E0F7D290
:100FC00085E022D321E0892B09F420E02093A400BE
:100FD00086E01AD321E0892B09F420E02093A500B4
:100FE00087E012D321E0892B09F420E02093A600AA
:100FF00088E00AD321E0892B09F420E02093A700A0
:1010000089E002D321E0892B09F420E02093A3009A
:1010100083E0FAD221E0892B09F420E02093AB0091
:1010200084E0F2D221E0892B09F420E02093AC0087
:10103000DFD88091700090917100A0917200B09102
:101040007300C81AD90AEA0AFB0A88ECC816D10448
:10105000E104F104B8F060E08FE0A9D210927700CB
:101060006091760080E1A3D261E0809174008111EB
:1010700001C060E081E1DF91CF91FF90EF90DF90C0
:10108000CF9095C2DF91CF91FF90EF90DF90CF90FE
:10109000089580EB90E0B1D0EEE6F0E080E580834B
:1010A00081E081830895CF92DF92EF92FF920F93B8
:1010B0001F93CF938091B800A7D2C82FA3D10091DE
:1010C000B1001091B2002091B3003091B4006B01D7
:1010D0007C01C01AD10AE20AF30A970186010B3F8C
:1010E00011052105310510F01092B7006093B10091
:1010F0007093B2008093B3009093B4008091B700D6
:101100008F5F8093B7008A3038F4823068F5813081
:10111000F9F01092B70020C08A30B9F18B30C9F7CE
:101120008091B5008D3FA8F78091BA008F5F803124
:1011300008F080E09091B900981759F3E82FF0E09B
:101140009091B600E554FF4F90838093BA00E1CFB1
:101150001092B6001092B500CF911F910F91FF90A1
:10116000EF90DF90CF9008958091B5008C0F809321
:10117000B5008091B60090E09595879520E0C1116B
:1011800020E8822B8093B600E7CF8091B500817074
:101190008C1719F08093B500DFCF8DEFFBCFE09176
:1011A000B9008091BA008E1759F0EF5FE03108F076
:1011B000E0E0E093B900F0E0E554FF4F808108954E
:1011C00080E008959091B9008091BA00981749F095
:1011D0008091B9009091BA00891B87FF03C0805F9E
:1011E000089580E00895EEDF811103C08FEF90E055
:1011F0000895D5DF8111FBCFF9CF0895CF93DF9309
:10120000D82FC62F8093B80062E08C2F94D162E073
:101210008D2F91D11092BA001092B90080E0C230A7
:1012200021F08FEFC33009F481E042E050E063E544
:1012300078E0DF91CF912FC0CF93CFB7F894809112
:10124000CE0081111FC0EEE5F0E08491E7E4F0E00C
:101250009491E82FF0E0EE0FFF1FE158FF4FA591AA
:10126000B491EC91E92319F461E08AE0A0D161E046
:101270008AE061D16C9A6E9A61E08DE05CD161E0A8
:101280008BE059D18091CE008F5F8093CE00CFBF8D
:10129000CF9108950895823088F4E82FF0E0EE0FA2
:1012A000FF1FE05AFF4F71836083813041F085B7A3
:1012B0008C7F482B45BF8BB780648BBF089585B763
:1012C000837F440F551F440F551F482B45BF8BB7D5
:1012D0008068F3CF1F920F920FB60F9211242F93B5
:1012E0003F934F935F936F937F938F939F93AF93AE
:1012F000BF93EF93FF93E0916000F0916100099537
:10130000FF91EF91BF91AF919F918F917F916F91DD
:101310005F914F913F912F910F900FBE0F901F90B3
:1013200018951F920F920FB60F9211242F933F938F
:101330004F935F936F937F938F939F93AF93BF93DD
:10134000EF93FF93E0916200F09163000995FF91A4
:10135000EF91BF91AF919F918F917F916F915F912D
:101360004F913F912F910F900FBE0F901F901895A6
:101370001F920F920FB60F9211242F933F938F93CA
:101380009F93AF93BF938091D0009091D100A09193
:10139000D200B091D3003091CF0026E0230F2D373B
:1013A00058F50296A11DB11D2093CF008093D00067
:1013B0009093D100A093D200B093D3008091D40039
:1013C0009091D500A091D600B091D7000196A11DB3
:1013D000B11D8093D4009093D500A093D600B09314
:1013E000D700BF91AF919F918F913F912F910F9017
:1013F0000FBE0F901F90189529E8230F0396A11D8B
:10140000B11DD2CF2FB7F8946091D0007091D10068
:101410008091D2009091D3002FBF08953FB7F894E8
:101420008091D4009091D500A091D600B091D700C2
:1014300022B708B600FE05C02F3F19F00196A11D86
:10144000B11D3FBFBA2FA92F982F8827BC01CD010E
:10145000620F711D811D911D43E0660F771F881F6C
:10146000991F4A95D1F708958F929F92AF92BF929C
:10147000CF92DF92EF92FF926B017C01CFDF4B01A5
:101480005C01C114D104E104F104D9F0F0D0C6DF4D
:10149000681979098A099B09683E7340810591059D
:1014A00080F321E0C21AD108E108F10888EE880E25
:1014B00083E0981EA11CB11CC114D104E104F10405
:1014C00031F7FF90EF90DF90CF90BF90AF909F905B
:1014D0008F900895789483B7826083BF83B78160CB
:1014E00083BF89B7816089BF1EBC8EB582608EBD07
:1014F0008EB581608EBD8FB581608FBD85B58460EE
:1015000085BD85B5806485BD329A319A3098379A09
:101510001AB80895853041F0873049F0843051F48D
:101520008FB58F778FBD08958FB58F7DFBCF85B534
:101530008F7D85BD0895CF93DF9390E0FC01E35C40
:10154000FF4F24918C5A9F4FFC0184918823C9F04E
:1015500090E0880F991FFC01E158FF4FA591B491CD
:10156000FC01EB58FF4FC591D49161110DC09FB79D
:10157000F8948C91209582238C938881282328834A
:101580009FBFDF91CF910895623051F49FB7F894D7
:101590003C91822F809583238C93E8812E2BEFCF73
:1015A0008FB7F894EC912E2B2C938FBFEACF1F931B
:1015B000CF93DF93282F30E0F901EA5DFF4F84914C
:1015C000F901E35CFF4FD491F901EC5AFF4FC4914C
:1015D000CC23A1F0162F81119DDFEC2FF0E0EE0F50
:1015E000FF1FEB58FF4FA591B4918FB7F894EC9182
:1015F000111108C0D095DE23DC938FBFDF91CF910E
:101600001F910895DE2BF8CFCF93DF93282F30E082
:10161000F901EA5DFF4F8491F901E35CFF4FD4913A
:10162000F901EC5AFF4FC491CC2399F0811172DF7C
:10163000EC2FF0E0EE0FFF1FE559FF4FA591B4919D
:10164000EC91ED2381E090E009F480E0DF91CF910F
:10165000089580E090E0FACF08953CDFFDDF1DDCC7
:10166000C0E0D0E07DDC2097E9F3CAD4FBCF089539
:10167000EE0FFF1F0590F491E02D0994E199FECF44
:101680009FBB8EBBE09A99278DB30895262FE199D1
:10169000FECF9FBB8EBB2DBB0FB6F894E29AE19AAA
:0A16A0000FBE01960895F894FFCFE5
:0416AA004A090000E9
:00000001FF
