:1000000045C0E9C80FC967C066C065C064C063C0A9
:1000100062C02FC960C05FC05EC05DC05CC05BC015
:100020005AC059C058C00000000000000000000481
:1000300005070000000000000000000000010204AD
:10004000081020408001020408102001020408105A
:100050002040804004040404040404040202020258
:10006000020203030303030302020300000000363D
:10007000003300300000000000380035003200007E
:1000800000000037003400310000CA0711241FBEF1
:10009000CFE5D4E0DEBFCDBF10E0A0E6B0E0ECEAF3
:1000A000F5E102C005900D92A436B107D9F720E022
:1000B000A4E6B0E001C01D92A73DB207E1F710E051
:1000C000C6E4D0E003C02197FE0153DAC534D1075E
:1000D000D1F744DA69CA94CF1F93CF93DF93EC0131
:1000E000162F4DDA181731F0612FCE01DF91CF9125
:1000F0001F914DCADF91CF911F9108958FB90000D4
:10010000779BFECF8FB10895CF92DF92EF92FF924F
:10011000982F990F990F990F30E020E080E0C12CC3
:10012000D12C7601C394983390F4B701A601022E26
:1001300004C0440F551F661F771F0A94D2F7E92F9A
:10014000F0E0E958FF4FE081EE2361F0842B2F5F50
:100150003F4F9F5F2830310531F7FF90EF90DF90E0
:10016000CF90089540958423F2CFCF93DF93D82F7B
:10017000C62F30916E0020916F008091CC008823B3
:1001800081F09FB7F8948091CC00813039F58BB71E
:100190008093CA004BB78091CB00809584238BBF9E
:1001A0009FBF3DB92EB960E08AE082D98D2FA6DFCE
:1001B0008C2FA4DF61E08AE07BD98091CC0088237A
:1001C00051F09FB7F8942091CC008091CA00213063
:1001D00041F48BBF9FBFDF91CF9108959093CA00E8
:1001E000E0CF8FBFF8CFCF93C0E08C2F8DDFCF5FF4
:1001F000682F8C2FBADFC730C1F7CF910895CF9306
:10020000DF93C7E7D0E081E08AA7EDDF64EF71E01C
:1002100080E090E0AAD81AA6DF91CF91E4CFE7E77B
:10022000F0E09F01275730402817390714F4119246
:10023000F8CF0895FF920F931F93CF93DF93C82FAA
:1002400088E290E0ECDFCFDF64E170E080E090E0F6
:100250008CD807E710E0FF24F394F801F082C3DFA5
:1002600064E170E080E090E080D8F801F786BBDFC1
:1002700064E170E080E090E078D8F8011786B3DFA1
:1002800064E170E080E090E070D8D0E0C958DF4FC2
:10029000F882A9DF64E170E080E090E066D8F801C0
:1002A00010821882A0DF64E170E080E090E0DF91CE
:1002B000CF911F910F91FF9058C8CF93DF9388E2A1
:1002C00090E0ADDFC7E7D0E081E088A78CDF64EF86
:1002D00071E080E090E049D818A6DF91CF9183CFFC
:1002E0000F931F93CF938C01C62F49D98A3011F0F9
:1002F000843149F4C1E08A3009F0C0E08C2FCF91FD
:100300001F910F91089564E1C1116AE0C801E4DE14
:10031000F5CF611102C064E1DFCE6AE0FDCFCF937B
:10032000803E910529F481E080936C00CF9108957F
:10033000813E910531F481E080936C0080936B00E5
:10034000F5CF803F910541F420916D00211104C04B
:1003500081E080936D00EACF20916C0021118BC069
:1003600020916B00211187C030E020E010926500E1
:1003700010926400820F931F8634910509F4EDC337
:100380000CF098C18632910509F4CBC30CF000C182
:100390008631910509F4BEC30CF0B7C08D309105CC
:1003A00009F46AC40CF08AC08530910509F48DC443
:1003B0000CF064C0049709F4A1C4809165008823FF
:1003C00031F080916400811102C010927700809119
:1003D0006A008823A9F080916900882389F08091C0
:1003E0006800882369F010926A00109269001092E8
:1003F00068001092660010926500109264005DDF44
:1004000080916A00882369F180916900882349F10D
:1004100080916700882329F110926A001092690088
:1004200010926700109266001092650010926400AE
:1004300088E290E0F4DEC1E0C0939F00D4DEC09378
:100440008000D1DE64EF71E080E090E08ED7109202
:100450009F00C9DE64EF71E080E090E086D71092E3
:10046000800010926D0080916B00882309F469C4AC
:1004700010926B005BCF20E031E078CF86309105A1
:1004800009F458C40C9709F098CF80916D00882327
:1004900009F49DCF8091740082FD4AC484608093EA
:1004A00074006091740081E090E016DE8091740029
:1004B00082FB882780F98093A9007FCF8231910544
:1004C00009F461C2A4F48E30910509F4B3C34197D5
:1004D00009F073CF80916D0091E0892780938600A9
:1004E00080937700809369008093640066CF8431A5
:1004F000910509F451C2459709F05FCF80916D00D5
:1005000091E089278093790058CF8E31910509F4C5
:1005100088C1ECF48B31910509F4E0C254F44A9798
:1005200009F04BCF80916D0091E0892780937F0087
:1005300044CF8C31910509F476C24D9709F03DCF37
:1005400080916D0091E089278093810036CF8332BE
:10055000910509F47DC274F48132910509F471C2E8
:10056000829709F02ACF80916D0091E089278093CE
:10057000870023CF8432910509F471C2859709F071
:100580001CCF80916D0091E089278093920015CF58
:100590008533910509F4B7C20CF043C08D32910543
:1005A00009F495C2ECF48A32910509F4A5C254F419
:1005B000899709F002CF80916D0091E0892780939F
:1005C0007E00FBCE8B32910509F450C28C9709F066
:1005D000F4CE80916D0091E0892780939900EDCE53
:1005E0008233910509F426C274F48E32910509F420
:1005F0009FC2C19709F0E1CE80916D0091E08927FB
:1006000080939600DACE8333910509F436C2C497FD
:1006100009F0D3CE80916D0091E0892780939800F6
:10062000CCCE8E33910509F491C20CF58B33910534
:1006300009F431C274F48633910509F480C2CA9773
:1006400009F0BBCE80916D0091E0892780938E00E8
:10065000B4CE8C33910509F448C2CD9709F0ADCEE4
:1006600080916D0091E0892780939300A6CE83341A
:10067000910509F409C27CF48134910509F474C22E
:100680008234910509F099CE80916D0091E089271F
:1006900080938D0092CE8434910509F40AC285348A
:1006A000910509F08ACE80916D0091E089278093B1
:1006B0007B0083CE8337910509F43AC20CF0B8C0B1
:1006C0008935910509F45FC10CF075C08D34910531
:1006D00009F4F6C1DCF58A34910509F4FFC0CCF4C5
:1006E0008934910509F069CE20916D0081E02827B9
:1006F000209386003091660087E190E0332311F06B
:1007000082E290E089589F4FFC012083309365007E
:1007100054CE8B34910509F4C5C18C34910509F090
:100720004CCE20916D0081E02827209386003091E7
:1007300066008DE090E0332311F088E090E0895866
:100740009F4FFC0120833093650037CE843591059F
:1007500009F41FC2ECF48E34910509F456C28235B7
:10076000910509F02ACE20916D0081E02827209381
:100770008600309166008CE190E0332311F085E033
:1007800090E089589F4FFC0120833093650015CE7F
:100790008535910509F424C28835910509F00DCEFF
:1007A00080916D0091E08927809386008093770087
:1007B0008093640002CE8936910509F4ABC1DCF464
:1007C0008B35910509F4F2C10CF426C18D359105E4
:1007D00009F4F9C18636910509F0EFCD80916D00DD
:1007E00091E089278093770080937B008093640059
:1007F00080936700E2CD8037910509F454CF4CF423
:100800008B36910509F4BDCE8C36910509F428CFBD
:10081000D4CD8137910509F467CF8237910509F06E
:10082000CCCD80916D0091E0892780938200C5CD69
:10083000823121E0920709F448C2DCF58A3791053C
:1008400009F46FC1BCF48537910509F47FC10CF43C
:1008500076C18637910509F4D4C08937910509F02E
:10086000ACCD80916D0091E08927809386008093C4
:100870008D00A3CD8D37910509F46FC18CF48B37B2
:10088000910509F4F0C18C37910509F096CD80915E
:100890006D0091E089278093860080939E008DCD26
:1008A0008E37910509F4FEC18131914009F412CED1
:1008B00084CD813721E0920709F477C0B4F58A35F9
:1008C000F1E09F0709F4A8C0F4F48431E1E09E0749
:1008D00009F462C08A34914009F06FCD20916D0017
:1008E00081E02827209386003091660080E290E026
:1008F000332311F088E190E089589F4FFC01208359
:10090000309365005ACD8B3621E0920709F46EC012
:100910008037914009F051CD80916D0091E0892799
:10092000809386008093780048CD8537F1E09F075B
:1009300009F446C0A4F48237E1E09E0709F44BC0F5
:100940008437914009F039CD80916D0091E089277D
:100950008093770080938B00809364002ECD8A373C
:1009600021E0920709F493C18D37914009F025CD1C
:1009700080916D0091E089278093770080938A00B1
:10098000809364001ACD80916D0091E08927809357
:1009900077008093660011CD80916D0091E08927EA
:1009A0008093860080936A0008CD80916D0091E06D
:1009B00089278093860080938F0080936800FDCC08
:1009C00080916D0091E08927809377008093930058
:1009D00080936400F2CC80916D0091E08927809330
:1009E000770080939B0080936400E7CC80916D003A
:1009F00091E089278093770080939A008093640028
:100A0000DCCC80916D0091E0892780937700809302
:100A10007E0080936400D1CC80916D0091E08927A5
:100A200080937D00CACC80916D0091E089278093EE
:100A30007800C3CC80916D0091E0892780939E005F
:100A4000BCCC80916D0091E0892780938F00B5CC5C
:100A500080916D0091E0892780938800AECC8091D1
:100A60006D0091E0892780938900A7CC80916D006B
:100A700091E0892780939000A0CC80916D0091E057
:100A8000892780939D0099CC80916D0091E0892702
:100A900080938C0092CC80916D0091E089278093A7
:100AA00095008BCC80916D0091E089278093850023
:100AB00084CC80916D0091E08927809384007DCC67
:100AC00080916D0091E0892780937C0076CC8091A5
:100AD0006D0091E08927809391006FCC80916D002B
:100AE00091E089278093800068CC80916D0091E02F
:100AF00089278093940061CC80916D0091E08927D3
:100B0000809397005ACC80916D0091E08927809363
:100B10009C0053CC80916D0091E0892780937A00EE
:100B20004CCC80916D0091E0892780938A0045CC60
:100B300080916D0091E0892780939A003ECC80914E
:100B40006D0091E0892780939B0037CC80916D00E8
:100B500091E0892780938B0030CC80916D0091E0EB
:100B600089278093830029CC20916D0081E028277C
:100B700020938600309166008FE190E0332311F0DE
:100B80008AE190E089589F4FFC01208330936500F3
:100B900014CC80916D0081111ACC80916600811176
:100BA00003C085E247DB09CC89E1FCCF80916D0071
:100BB00081110DCC80916600811103C08DE13ADB7B
:100BC000FCCB81E2FCCF80916D00811100CC809143
:100BD0006600811103C081E12DDBEFCB89E0FCCF02
:100BE00020916D0081E028272093860030916600D7
:100BF0008EE090E0332311F086E190E089589F4F1A
:100C0000FC01208330936500D8CB20916D0081E0FA
:100C1000282720938600309166008EE190E03323F0
:100C200011F084E090E089589F4FFC0120833093BD
:100C30006500C3CB80916600882331F080916D0000
:100C4000811102C081E0F6DA809166008111B5CB96
:100C500080916D0091E089278093860080938700C2
:100C600010926500AACB80916D0091E08927809356
:100C7000860080939500A1CB80916D0091E089273B
:100C80008093770080938C008093640096CB809152
:100C90006D0091E089278093770080939200809384
:100CA00064008BCB80916D00882309F490CB609118
:100CB000750081E068276093750090E080E029DB93
:100CC000809175008093A00078CB80916D0088237F
:100CD00009F47DCB8091740080FD0EC0816080930B
:100CE00074006091740081E090E0F6D98091740006
:100CF00081708093A70061CB8E7FF1CF80916D00D2
:100D0000882309F464CB8091740081FD0FC0826058
:100D1000809374006091740081E090E0DDD980914F
:100D20007400869581708093A80047CB8D7FF0CFAB
:100D30008B7FB5CB80916D00882309F448CB5FDAB7
:100D40003CCB10926C00F2CA6091750090E080E09C
:100D5000C7DA8093750081E090E011D48830B8F450
:100D600080937400809175008093A000809174003E
:100D7000982F91709093A70081FB992790F99093F9
:100D8000A80082FB882780F98093A900089510921B
:100D9000740060E081E090E09FD9E4CFCED161E0C3
:100DA0008AE04AD361E08AE083D361E08EE044D3F5
:100DB00061E08FE041D361E080E13ED361E081E119
:100DC0003BD362E085E038D362E086E035D362E071
:100DD00087E032D362E088E02FD362E089E02CD351
:100DE00062E083E029D362E084E026D361E082E11F
:100DF00023D361E083E120D361E080E01DD361E093
:100E00008EE056D361E08FE053D360E080E150D3B1
:100E100060E081E14DD360E082E14AD360E083E1AC
:100E200047D360E080E044D362E082E005D362E033
:100E300081E002D388E390E0F2D986DF609175000B
:100E400080E136D361E080917400811101C060E0DF
:100E500081E12ED332DA62E081E051D160E08FE0AF
:100E600027C3CF92DF92EF92FF92CF93DF934BD2C3
:100E70006B017C0128D1882321F136D1EC0181E07E
:100E800080937600C0927000D0927100E092720060
:100E9000F092730061E08FE00BD3CE0140DA6091F5
:100EA0007400617082E104D3609174006695617092
:100EB00083E1FED26091740062FB662760F980E0F6
:100EC000F7D285E022D321E0892B09F420E020939A
:100ED000A30086E01AD321E0892B09F420E02093B7
:100EE000A40087E012D321E0892B09F420E02093AD
:100EF000A50088E00AD321E0892B09F420E02093A3
:100F0000A60089E002D321E0892B09F420E0209398
:100F1000A20083E0FAD221E0892B09F420E020939B
:100F2000AA0084E0F2D221E0892B09F420E020938A
:100F3000AB0059D98091700090917100A09172001E
:100F4000B0917300C81AD90AEA0AFB0A88ECC816DD
:100F5000D104E104F104B8F060E08FE0A9D210926E
:100F600076006091750080E1A3D261E08091740009
:100F7000811101C060E081E1DF91CF91FF90EF909E
:100F8000DF90CF9095C2DF91CF91FF90EF90DF90EF
:100F9000CF9008958FEA90E0B1D0EEE6F0E080E5E2
:100FA000808381E081830895CF92DF92EF92FF9258
:100FB0000F931F93CF938091B700A7D2C82FA3D1CF
:100FC0000091B0001091B1002091B2003091B300B7
:100FD0006B017C01C01AD10AE20AF30A970186016B
:100FE0000B3F11052105310510F01092B6006093FA
:100FF000B0007093B1008093B2009093B3008091E1
:10100000B6008F5F8093B6008A3038F4823068F57E
:101010008130F9F01092B60020C08A30B9F18B30DF
:10102000C9F78091B4008D3FA8F78091B9008F5F18
:10103000803108F080E09091B800981759F3E82FBC
:10104000F0E09091B500E654FF4F90838093B90093
:10105000E1CF1092B5001092B400CF911F910F9183
:10106000FF90EF90DF90CF9008958091B4008C0FA7
:101070008093B4008091B50090E09595879520E02D
:10108000C11120E8822B8093B500E7CF8091B40096
:1010900081708C1719F08093B400DFCF8DEFFBCFF8
:1010A000E091B8008091B9008E1759F0EF5FE03100
:1010B00008F0E0E0E093B800F0E0E654FF4F8081F4
:1010C000089580E008959091B8008091B900981734
:1010D00049F08091B8009091B900891B87FF03C047
:1010E000805F089580E00895EEDF811103C08FEFE7
:1010F00090E00895D5DF8111FBCFF9CF0895CF930C
:10110000DF93D82FC62F8093B70062E08C2F94D145
:1011100062E08D2F91D11092B9001092B80080E05A
:10112000C23021F08FEFC33009F481E042E050E09B
:1011300064ED77E0DF91CF912FC0CF93CFB7F894D4
:101140008091CD0081111FC0EEE5F0E08491E7E4CD
:10115000F0E09491E82FF0E0EE0FFF1FE158FF4F11
:10116000A591B491EC91E92319F461E08AE0A0D152
:1011700061E08AE061D16C9A6E9A61E08DE05CD1A9
:1011800061E08BE059D18091CD008F5F8093CD00DD
:10119000CFBFCF9108950895823088F4E82FF0E012
:1011A000EE0FFF1FE05AFF4F71836083813041F0E3
:1011B00085B78C7F482B45BF8BB780648BBF089564
:1011C00085B7837F440F551F440F551F482B45BFDC
:1011D0008BB78068F3CF1F920F920FB60F92112436
:1011E0002F933F934F935F936F937F938F939F932F
:1011F000AF93BF93EF93FF93E0916000F091610094
:101200000995FF91EF91BF91AF919F918F917F9140
:101210006F915F914F913F912F910F900FBE0F9063
:101220001F9018951F920F920FB60F9211242F93B3
:101230003F934F935F936F937F938F939F93AF935E
:10124000BF93EF93FF93E0916200F09163000995E3
:10125000FF91EF91BF91AF919F918F917F916F918E
:101260005F914F913F912F910F900FBE0F901F9064
:1012700018951F920F920FB60F9211242F933F9340
:101280008F939F93AF93BF938091CF009091D000A5
:10129000A091D100B091D2003091CE0023E0230F75
:1012A0002D3758F50196A11DB11D2093CE008093D6
:1012B000CF009093D000A093D100B093D200809142
:1012C000D3009091D400A091D500B091D6000196A2
:1012D000A11DB11D8093D3009093D400A093D5009D
:1012E000B093D600BF91AF919F918F913F912F9175
:1012F0000F900FBE0F901F90189526E8230F0296AF
:10130000A11DB11DD2CF2FB7F8946091CF0070917D
:10131000D0008091D1009091D2002FBF08953FB7A7
:10132000F8948091D3009091D400A091D500B09111
:10133000D60022B708B600FE05C02F3F19F001966F
:10134000A11DB11D3FBFBA2FA92F982F8827BC011F
:10135000CD01620F711D811D911D42E0660F771F47
:10136000881F991F4A95D1F708958F929F92AF9247
:10137000BF92CF92DF92EF92FF926B017C01CFDFA1
:101380004B015C01C114D104E104F104D9F0F0D0A7
:10139000C6DF681979098A099B09683E734081058F
:1013A000910580F321E0C21AD108E108F10888EE26
:1013B000880E83E0981EA11CB11CC114D104E10465
:1013C000F10431F7FF90EF90DF90CF90BF90AF9096
:1013D0009F908F900895789483B7826083BF83B77E
:1013E000816083BF89B7816089BF1EBC8EB5826072
:1013F0008EBD8EB581608EBD8FB581608FBD85B588
:10140000846085BD85B5806485BD329A319A309AF5
:10141000379A1AB80895853041F0873049F0843002
:1014200051F48FB58F778FBD08958FB58F7DFBCF2A
:1014300085B58F7D85BD0895CF93DF9390E0FC0146
:10144000E35CFF4F24918C5A9F4FFC0184918823C9
:10145000C9F090E0880F991FFC01E158FF4FA5915A
:10146000B491FC01EB58FF4FC591D49161110DC0AF
:101470009FB7F8948C91209582238C9388812823A0
:1014800028839FBFDF91CF910895623051F49FB7B9
:10149000F8943C91822F809583238C93E8812E2BA6
:1014A000EFCF8FB7F894EC912E2B2C938FBFEACF10
:1014B0001F93CF93DF93282F30E0F901EA5DFF4FB0
:1014C0008491F901E35CFF4FD491F901EC5AFF4F8D
:1014D000C491CC23A1F0162F81119DDFEC2FF0E0F9
:1014E000EE0FFF1FEB58FF4FA591B4918FB7F89403
:1014F000EC91111108C0D095DE23DC938FBFDF91F2
:10150000CF911F910895DE2BF8CFCF93DF93282F33
:1015100030E0F901EA5DFF4F8491F901E35CFF4F90
:10152000D491F901EC5AFF4FC491CC2399F0811169
:1015300072DFEC2FF0E0EE0FFF1FE559FF4FA59192
:10154000B491EC91ED2381E090E009F480E0DF912B
:10155000CF91089580E090E0FACF08953CDFFDDF61
:101560001DDCC0E0D0E07DDC2097E9F349D5FBCF5E
:101570000895EE0FFF1F0590F491E02D0994E19975
:10158000FECF9FBB8EBBE09A99278DB30895262F7F
:10159000E199FECF9FBB8EBB2DBB0FB6F894E29AAC
:0C15A000E19A0FBE01960895F894FFCF69
:0415AC00CB08000068
:00000001FF
